{
  "_format": "hh-sol-artifact-1",
  "contractName": "HealthRecords",
  "sourceName": "contracts/hospitalRecord.sol",
  "abi": [
    {
      "inputs": [],
      "stateMutability": "nonpayable",
      "type": "constructor"
    },
    {
      "anonymous": false,
      "inputs": [
        {
          "indexed": true,
          "internalType": "address",
          "name": "hospital",
          "type": "address"
        },
        {
          "indexed": true,
          "internalType": "address",
          "name": "_patient",
          "type": "address"
        },
        {
          "indexed": false,
          "internalType": "uint256",
          "name": "recordId",
          "type": "uint256"
        },
        {
          "indexed": false,
          "internalType": "bytes",
          "name": "_dataHash",
          "type": "bytes"
        }
      ],
      "name": "PatientRecordCreated",
      "type": "event"
    },
    {
      "anonymous": false,
      "inputs": [
        {
          "indexed": true,
          "internalType": "address",
          "name": "patient",
          "type": "address"
        },
        {
          "indexed": false,
          "internalType": "uint256",
          "name": "recordId",
          "type": "uint256"
        },
        {
          "indexed": false,
          "internalType": "bytes",
          "name": "dataHash",
          "type": "bytes"
        }
      ],
      "name": "PatientRecordUpdated",
      "type": "event"
    },
    {
      "anonymous": false,
      "inputs": [
        {
          "indexed": true,
          "internalType": "address",
          "name": "hospital",
          "type": "address"
        }
      ],
      "name": "RegisteredHospital",
      "type": "event"
    },
    {
      "anonymous": false,
      "inputs": [
        {
          "indexed": true,
          "internalType": "address",
          "name": "patient",
          "type": "address"
        },
        {
          "indexed": true,
          "internalType": "address",
          "name": "doctor",
          "type": "address"
        }
      ],
      "name": "doctorAccessGranted",
      "type": "event"
    },
    {
      "anonymous": false,
      "inputs": [
        {
          "indexed": true,
          "internalType": "address",
          "name": "patient",
          "type": "address"
        },
        {
          "indexed": true,
          "internalType": "address",
          "name": "doctor",
          "type": "address"
        }
      ],
      "name": "doctorAccessRevoked",
      "type": "event"
    },
    {
      "anonymous": false,
      "inputs": [
        {
          "indexed": true,
          "internalType": "address",
          "name": "hospital",
          "type": "address"
        }
      ],
      "name": "hospitalAddedToWhitelist",
      "type": "event"
    },
    {
      "anonymous": false,
      "inputs": [
        {
          "indexed": true,
          "internalType": "address",
          "name": "hospital",
          "type": "address"
        }
      ],
      "name": "hospitalRemovedFromwhitelisted",
      "type": "event"
    },
    {
      "inputs": [
        {
          "internalType": "address",
          "name": "_doctor",
          "type": "address"
        }
      ],
      "name": "addDoctorTohospital",
      "outputs": [],
      "stateMutability": "nonpayable",
      "type": "function"
    },
    {
      "inputs": [
        {
          "internalType": "address",
          "name": "_address",
          "type": "address"
        }
      ],
      "name": "addHospitalToWhitelist",
      "outputs": [],
      "stateMutability": "nonpayable",
      "type": "function"
    },
    {
      "inputs": [
        {
          "internalType": "address",
          "name": "_patient",
          "type": "address"
        },
        {
          "internalType": "bytes",
          "name": "_dataHash",
          "type": "bytes"
        }
      ],
      "name": "createRecord",
      "outputs": [],
      "stateMutability": "nonpayable",
      "type": "function"
    },
    {
      "inputs": [
        {
          "internalType": "address",
          "name": "_patient",
          "type": "address"
        }
      ],
      "name": "getPatientRecord",
      "outputs": [
        {
          "internalType": "bytes",
          "name": "",
          "type": "bytes"
        }
      ],
      "stateMutability": "view",
      "type": "function"
    },
    {
      "inputs": [
        {
          "internalType": "address",
          "name": "_doctor",
          "type": "address"
        }
      ],
      "name": "grantDoctorAccess",
      "outputs": [],
      "stateMutability": "nonpayable",
      "type": "function"
    },
    {
      "inputs": [
        {
          "internalType": "address",
          "name": "_patient",
          "type": "address"
        },
        {
          "internalType": "address",
          "name": "_doctor",
          "type": "address"
        }
      ],
      "name": "hasDoctorAccess",
      "outputs": [
        {
          "internalType": "bool",
          "name": "",
          "type": "bool"
        }
      ],
      "stateMutability": "view",
      "type": "function"
    },
    {
      "inputs": [],
      "name": "owner",
      "outputs": [
        {
          "internalType": "address",
          "name": "",
          "type": "address"
        }
      ],
      "stateMutability": "view",
      "type": "function"
    },
    {
      "inputs": [],
      "name": "registerHospital",
      "outputs": [],
      "stateMutability": "nonpayable",
      "type": "function"
    },
    {
      "inputs": [
        {
          "internalType": "address",
          "name": "_doctor",
          "type": "address"
        }
      ],
      "name": "removeDoctorFromhospital",
      "outputs": [],
      "stateMutability": "nonpayable",
      "type": "function"
    },
    {
      "inputs": [
        {
          "internalType": "address",
          "name": "_address",
          "type": "address"
        }
      ],
      "name": "removeHospitalFromWhitelist",
      "outputs": [],
      "stateMutability": "nonpayable",
      "type": "function"
    },
    {
      "inputs": [
        {
          "internalType": "address",
          "name": "_doctor",
          "type": "address"
        }
      ],
      "name": "revokeDoctorAccess",
      "outputs": [],
      "stateMutability": "nonpayable",
      "type": "function"
    },
    {
      "inputs": [
        {
          "internalType": "address",
          "name": "_patient",
          "type": "address"
        },
        {
          "internalType": "bytes",
          "name": "_dataHash",
          "type": "bytes"
        }
      ],
      "name": "updatePatientRecord",
      "outputs": [],
      "stateMutability": "nonpayable",
      "type": "function"
    },
    {
      "inputs": [
        {
          "internalType": "address",
          "name": "_doctor",
          "type": "address"
        }
      ],
      "name": "verifyDoctor",
      "outputs": [
        {
          "internalType": "bool",
          "name": "",
          "type": "bool"
        }
      ],
      "stateMutability": "view",
      "type": "function"
    },
    {
      "inputs": [
        {
          "internalType": "address",
          "name": "_address",
          "type": "address"
        }
      ],
      "name": "verifyHospital",
      "outputs": [
        {
          "internalType": "bool",
          "name": "",
          "type": "bool"
        }
      ],
      "stateMutability": "view",
      "type": "function"
    }
  ],
  "bytecode": "0x608060405234801561001057600080fd5b5033600160006101000a81548173ffffffffffffffffffffffffffffffffffffffff021916908373ffffffffffffffffffffffffffffffffffffffff160217905550612099806100616000396000f3fe608060405234801561001057600080fd5b50600436106100ea5760003560e01c80636f24cf911161008c5780639d583779116100665780639d5837791461021f578063d80cb05c1461024f578063ead647721461027f578063f9c4b7531461029b576100ea565b80636f24cf91146101c95780638da5cb5b146101e557806398e74cfb14610203576100ea565b806337c3144a116100c857806337c3144a146101575780633df95ab814610161578063418a6f381461017d57806346fab62414610199576100ea565b806312e0808f146100ef578063186071741461010b57806320ea9eea1461013b575b600080fd5b6101096004803603810190610104919061156c565b6102b7565b005b6101256004803603810190610120919061156c565b6103a9565b6040516101329190611629565b60405180910390f35b61015560048036038101906101509190611780565b61055d565b005b61015f6108ab565b005b61017b6004803603810190610176919061156c565b6109d4565b005b6101976004803603810190610192919061156c565b610ac6565b005b6101b360048036038101906101ae919061156c565b610c2b565b6040516101c091906117f7565b60405180910390f35b6101e360048036038101906101de9190611780565b610c81565b005b6101ed611028565b6040516101fa9190611821565b60405180910390f35b61021d6004803603810190610218919061156c565b61104e565b005b6102396004803603810190610234919061183c565b6111b4565b60405161024691906117f7565b60405180910390f35b6102696004803603810190610264919061156c565b611248565b60405161027691906117f7565b60405180910390f35b6102996004803603810190610294919061156c565b61129e565b005b6102b560048036038101906102b0919061156c565b6113cc565b005b6001600460003373ffffffffffffffffffffffffffffffffffffffff1673ffffffffffffffffffffffffffffffffffffffff16815260200190815260200160002060008373ffffffffffffffffffffffffffffffffffffffff1673ffffffffffffffffffffffffffffffffffffffff16815260200190815260200160002060006101000a81548160ff0219169083151502179055508073ffffffffffffffffffffffffffffffffffffffff163373ffffffffffffffffffffffffffffffffffffffff167fe4ae379a2b73333d8050e100c3817aeae1f335bc84a80602f83e3add46fbbd4660405160405180910390a350565b6060600560003373ffffffffffffffffffffffffffffffffffffffff1673ffffffffffffffffffffffffffffffffffffffff16815260200190815260200160002060009054906101000a900460ff168061044c5750600760003373ffffffffffffffffffffffffffffffffffffffff1673ffffffffffffffffffffffffffffffffffffffff16815260200190815260200160002060009054906101000a900460ff165b61048b576040517f08c379a0000000000000000000000000000000000000000000000000000000008152600401610482906118d9565b60405180910390fd5b600260008373ffffffffffffffffffffffffffffffffffffffff1673ffffffffffffffffffffffffffffffffffffffff16815260200190815260200160002060010180546104d890611928565b80601f016020809104026020016040519081016040528092919081815260200182805461050490611928565b80156105515780601f1061052657610100808354040283529160200191610551565b820191906000526020600020905b81548152906001019060200180831161053457829003601f168201915b50505050509050919050565b600560003373ffffffffffffffffffffffffffffffffffffffff1673ffffffffffffffffffffffffffffffffffffffff16815260200190815260200160002060009054906101000a900460ff166105e9576040517f08c379a00000000000000000000000000000000000000000000000000000000081526004016105e0906119a5565b60405180910390fd5b600073ffffffffffffffffffffffffffffffffffffffff168273ffffffffffffffffffffffffffffffffffffffff1603610658576040517f08c379a000000000000000000000000000000000000000000000000000000000815260040161064f90611a11565b60405180910390fd5b600081511161069c576040517f08c379a000000000000000000000000000000000000000000000000000000000815260040161069390611a7d565b60405180910390fd5b6000600360008473ffffffffffffffffffffffffffffffffffffffff1673ffffffffffffffffffffffffffffffffffffffff1681526020019081526020016000206000805481526020019081526020016000206000015414610733576040517f08c379a000000000000000000000000000000000000000000000000000000000815260040161072a90611ae9565b60405180910390fd5b60008081548092919061074590611b42565b919050555060006040518060400160405280600054815260200183815250905080600360008573ffffffffffffffffffffffffffffffffffffffff1673ffffffffffffffffffffffffffffffffffffffff1681526020019081526020016000206000805481526020019081526020016000206000820151816000015560208201518160010190816107d69190611d36565b5090505080600260008573ffffffffffffffffffffffffffffffffffffffff1673ffffffffffffffffffffffffffffffffffffffff1681526020019081526020016000206000820151816000015560208201518160010190816108399190611d36565b509050508273ffffffffffffffffffffffffffffffffffffffff163373ffffffffffffffffffffffffffffffffffffffff167f9a893820fd8c53cb18a122f0d2281c7c3318d776c8162a3740fbafc55559ede26000548560405161089e929190611e17565b60405180910390a3505050565b600660003373ffffffffffffffffffffffffffffffffffffffff1673ffffffffffffffffffffffffffffffffffffffff16815260200190815260200160002060009054906101000a900460ff16610937576040517f08c379a000000000000000000000000000000000000000000000000000000000815260040161092e90611e93565b60405180910390fd5b6001600560003373ffffffffffffffffffffffffffffffffffffffff1673ffffffffffffffffffffffffffffffffffffffff16815260200190815260200160002060006101000a81548160ff0219169083151502179055503373ffffffffffffffffffffffffffffffffffffffff167fd9a6432fdd5e6db63c0b2e15e00e224e6c383a578a66fbc8d7b1f70930e1f43960405160405180910390a2565b6000600460003373ffffffffffffffffffffffffffffffffffffffff1673ffffffffffffffffffffffffffffffffffffffff16815260200190815260200160002060008373ffffffffffffffffffffffffffffffffffffffff1673ffffffffffffffffffffffffffffffffffffffff16815260200190815260200160002060006101000a81548160ff0219169083151502179055508073ffffffffffffffffffffffffffffffffffffffff163373ffffffffffffffffffffffffffffffffffffffff167f31b7fac12c7e5e97ab3d2e3c3798c24ffcb3da4f260e0d95e810cee31d7ee6c860405160405180910390a350565b600560003373ffffffffffffffffffffffffffffffffffffffff1673ffffffffffffffffffffffffffffffffffffffff16815260200190815260200160002060009054906101000a900460ff16610b52576040517f08c379a0000000000000000000000000000000000000000000000000000000008152600401610b49906119a5565b60405180910390fd5b6001600760008373ffffffffffffffffffffffffffffffffffffffff1673ffffffffffffffffffffffffffffffffffffffff16815260200190815260200160002060006101000a81548160ff02191690831515021790555033600860008373ffffffffffffffffffffffffffffffffffffffff1673ffffffffffffffffffffffffffffffffffffffff16815260200190815260200160002060006101000a81548173ffffffffffffffffffffffffffffffffffffffff021916908373ffffffffffffffffffffffffffffffffffffffff16021790555050565b6000600560008373ffffffffffffffffffffffffffffffffffffffff1673ffffffffffffffffffffffffffffffffffffffff16815260200190815260200160002060009054906101000a900460ff169050919050565b600760003373ffffffffffffffffffffffffffffffffffffffff1673ffffffffffffffffffffffffffffffffffffffff16815260200190815260200160002060009054906101000a900460ff16610d0d576040517f08c379a0000000000000000000000000000000000000000000000000000000008152600401610d0490611eff565b60405180910390fd5b600073ffffffffffffffffffffffffffffffffffffffff168273ffffffffffffffffffffffffffffffffffffffff1603610d7c576040517f08c379a0000000000000000000000000000000000000000000000000000000008152600401610d7390611a11565b60405180910390fd5b6000815111610dc0576040517f08c379a0000000000000000000000000000000000000000000000000000000008152600401610db790611f6b565b60405180910390fd5b600460008373ffffffffffffffffffffffffffffffffffffffff1673ffffffffffffffffffffffffffffffffffffffff16815260200190815260200160002060003373ffffffffffffffffffffffffffffffffffffffff1673ffffffffffffffffffffffffffffffffffffffff16815260200190815260200160002060009054906101000a900460ff16610e89576040517f08c379a0000000000000000000000000000000000000000000000000000000008152600401610e8090611fd7565b60405180910390fd5b6000600360008473ffffffffffffffffffffffffffffffffffffffff1673ffffffffffffffffffffffffffffffffffffffff1681526020019081526020016000206000805481526020019081526020016000206000015490506000604051806040016040528083815260200184815250905080600360008673ffffffffffffffffffffffffffffffffffffffff1673ffffffffffffffffffffffffffffffffffffffff1681526020019081526020016000206000848152602001908152602001600020600082015181600001556020820151816001019081610f6b9190611d36565b5090505080600260008673ffffffffffffffffffffffffffffffffffffffff1673ffffffffffffffffffffffffffffffffffffffff168152602001908152602001600020600082015181600001556020820151816001019081610fce9190611d36565b509050508373ffffffffffffffffffffffffffffffffffffffff167f0343046e03b191b9dfe5362525be86c6bc7a3ffed9fc5d39d2d3e12934240478838560405161101a929190611e17565b60405180910390a250505050565b600160009054906101000a900473ffffffffffffffffffffffffffffffffffffffff1681565b600560003373ffffffffffffffffffffffffffffffffffffffff1673ffffffffffffffffffffffffffffffffffffffff16815260200190815260200160002060009054906101000a900460ff166110da576040517f08c379a00000000000000000000000000000000000000000000000000000000081526004016110d1906119a5565b60405180910390fd5b6000600760008373ffffffffffffffffffffffffffffffffffffffff1673ffffffffffffffffffffffffffffffffffffffff16815260200190815260200160002060006101000a81548160ff0219169083151502179055506000600860008373ffffffffffffffffffffffffffffffffffffffff1673ffffffffffffffffffffffffffffffffffffffff16815260200190815260200160002060006101000a81548173ffffffffffffffffffffffffffffffffffffffff021916908373ffffffffffffffffffffffffffffffffffffffff16021790555050565b6000600460008473ffffffffffffffffffffffffffffffffffffffff1673ffffffffffffffffffffffffffffffffffffffff16815260200190815260200160002060008373ffffffffffffffffffffffffffffffffffffffff1673ffffffffffffffffffffffffffffffffffffffff16815260200190815260200160002060009054906101000a900460ff16905092915050565b6000600760008373ffffffffffffffffffffffffffffffffffffffff1673ffffffffffffffffffffffffffffffffffffffff16815260200190815260200160002060009054906101000a900460ff169050919050565b600160009054906101000a900473ffffffffffffffffffffffffffffffffffffffff1673ffffffffffffffffffffffffffffffffffffffff163373ffffffffffffffffffffffffffffffffffffffff161461132e576040517f08c379a000000000000000000000000000000000000000000000000000000000815260040161132590612043565b60405180910390fd5b6000600660008373ffffffffffffffffffffffffffffffffffffffff1673ffffffffffffffffffffffffffffffffffffffff16815260200190815260200160002060006101000a81548160ff0219169083151502179055508073ffffffffffffffffffffffffffffffffffffffff167f993be87b18b1c1cc2905ba3211a5866479005dcd237e2ba94fbd2b61a49e489260405160405180910390a250565b600160009054906101000a900473ffffffffffffffffffffffffffffffffffffffff1673ffffffffffffffffffffffffffffffffffffffff163373ffffffffffffffffffffffffffffffffffffffff161461145c576040517f08c379a000000000000000000000000000000000000000000000000000000000815260040161145390612043565b60405180910390fd5b6001600660008373ffffffffffffffffffffffffffffffffffffffff1673ffffffffffffffffffffffffffffffffffffffff16815260200190815260200160002060006101000a81548160ff0219169083151502179055508073ffffffffffffffffffffffffffffffffffffffff167f3cb9ff305ee235007a89068b5ca8a7a14b5a8bfacb91217384e979bed88b128d60405160405180910390a250565b6000604051905090565b600080fd5b600080fd5b600073ffffffffffffffffffffffffffffffffffffffff82169050919050565b60006115398261150e565b9050919050565b6115498161152e565b811461155457600080fd5b50565b60008135905061156681611540565b92915050565b60006020828403121561158257611581611504565b5b600061159084828501611557565b91505092915050565b600081519050919050565b600082825260208201905092915050565b60005b838110156115d35780820151818401526020810190506115b8565b60008484015250505050565b6000601f19601f8301169050919050565b60006115fb82611599565b61160581856115a4565b93506116158185602086016115b5565b61161e816115df565b840191505092915050565b6000602082019050818103600083015261164381846115f0565b905092915050565b600080fd5b600080fd5b7f4e487b7100000000000000000000000000000000000000000000000000000000600052604160045260246000fd5b61168d826115df565b810181811067ffffffffffffffff821117156116ac576116ab611655565b5b80604052505050565b60006116bf6114fa565b90506116cb8282611684565b919050565b600067ffffffffffffffff8211156116eb576116ea611655565b5b6116f4826115df565b9050602081019050919050565b82818337600083830152505050565b600061172361171e846116d0565b6116b5565b90508281526020810184848401111561173f5761173e611650565b5b61174a848285611701565b509392505050565b600082601f8301126117675761176661164b565b5b8135611777848260208601611710565b91505092915050565b6000806040838503121561179757611796611504565b5b60006117a585828601611557565b925050602083013567ffffffffffffffff8111156117c6576117c5611509565b5b6117d285828601611752565b9150509250929050565b60008115159050919050565b6117f1816117dc565b82525050565b600060208201905061180c60008301846117e8565b92915050565b61181b8161152e565b82525050565b60006020820190506118366000830184611812565b92915050565b6000806040838503121561185357611852611504565b5b600061186185828601611557565b925050602061187285828601611557565b9150509250929050565b600082825260208201905092915050565b7f4e6f7420617574686f7572697a65640000000000000000000000000000000000600082015250565b60006118c3600f8361187c565b91506118ce8261188d565b602082019050919050565b600060208201905081810360008301526118f2816118b6565b9050919050565b7f4e487b7100000000000000000000000000000000000000000000000000000000600052602260045260246000fd5b6000600282049050600182168061194057607f821691505b602082108103611953576119526118f9565b5b50919050565b7f486f73706974616c206e6f742076657269666965640000000000000000000000600082015250565b600061198f60158361187c565b915061199a82611959565b602082019050919050565b600060208201905081810360008301526119be81611982565b9050919050565b7f496e76616c69642070617469656e742061646472657373000000000000000000600082015250565b60006119fb60178361187c565b9150611a06826119c5565b602082019050919050565b60006020820190508181036000830152611a2a816119ee565b9050919050565b7f456d70747920646174616861736820706172616d000000000000000000000000600082015250565b6000611a6760148361187c565b9150611a7282611a31565b602082019050919050565b60006020820190508181036000830152611a9681611a5a565b9050919050565b7f50617469656e74207265636f726420616c726561647920657869737400000000600082015250565b6000611ad3601c8361187c565b9150611ade82611a9d565b602082019050919050565b60006020820190508181036000830152611b0281611ac6565b9050919050565b7f4e487b7100000000000000000000000000000000000000000000000000000000600052601160045260246000fd5b6000819050919050565b6000611b4d82611b38565b91507fffffffffffffffffffffffffffffffffffffffffffffffffffffffffffffffff8203611b7f57611b7e611b09565b5b600182019050919050565b60008190508160005260206000209050919050565b60006020601f8301049050919050565b600082821b905092915050565b600060088302611bec7fffffffffffffffffffffffffffffffffffffffffffffffffffffffffffffffff82611baf565b611bf68683611baf565b95508019841693508086168417925050509392505050565b6000819050919050565b6000611c33611c2e611c2984611b38565b611c0e565b611b38565b9050919050565b6000819050919050565b611c4d83611c18565b611c61611c5982611c3a565b848454611bbc565b825550505050565b600090565b611c76611c69565b611c81818484611c44565b505050565b5b81811015611ca557611c9a600082611c6e565b600181019050611c87565b5050565b601f821115611cea57611cbb81611b8a565b611cc484611b9f565b81016020851015611cd3578190505b611ce7611cdf85611b9f565b830182611c86565b50505b505050565b600082821c905092915050565b6000611d0d60001984600802611cef565b1980831691505092915050565b6000611d268383611cfc565b9150826002028217905092915050565b611d3f82611599565b67ffffffffffffffff811115611d5857611d57611655565b5b611d628254611928565b611d6d828285611ca9565b600060209050601f831160018114611da05760008415611d8e578287015190505b611d988582611d1a565b865550611e00565b601f198416611dae86611b8a565b60005b82811015611dd657848901518255600182019150602085019450602081019050611db1565b86831015611df35784890151611def601f891682611cfc565b8355505b6001600288020188555050505b505050505050565b611e1181611b38565b82525050565b6000604082019050611e2c6000830185611e08565b8181036020830152611e3e81846115f0565b90509392505050565b7f486f73706974616c206e6f742077686974656c69737465640000000000000000600082015250565b6000611e7d60188361187c565b9150611e8882611e47565b602082019050919050565b60006020820190508181036000830152611eac81611e70565b9050919050565b7f446f63746f72206e6f7420766572696669656400000000000000000000000000600082015250565b6000611ee960138361187c565b9150611ef482611eb3565b602082019050919050565b60006020820190508181036000830152611f1881611edc565b9050919050565b7f456d707479207265636f72640000000000000000000000000000000000000000600082015250565b6000611f55600c8361187c565b9150611f6082611f1f565b602082019050919050565b60006020820190508181036000830152611f8481611f48565b9050919050565b7f4e6f7420617574686f72697a6564000000000000000000000000000000000000600082015250565b6000611fc1600e8361187c565b9150611fcc82611f8b565b602082019050919050565b60006020820190508181036000830152611ff081611fb4565b9050919050565b7f4e6f742041646d696e0000000000000000000000000000000000000000000000600082015250565b600061202d60098361187c565b915061203882611ff7565b602082019050919050565b6000602082019050818103600083015261205c81612020565b905091905056fea2646970667358221220ba9e9f111e62c34423db89c49363cb6dbf5f34b8c57967023f40c394f0afb54764736f6c63430008180033",
  "linkReferences": {},
  "deployedLinkReferences": {}
}